H000002000000000040845.6620241107Agrani Bank Limited                
D000001FT2431152372707220241106000000000031317.12BDT132SALAHALDEEN HASSAN SALAH ALJOHANI                                     1114425802                         Remittance To Account              DHAKA                              FOREIGN EXCH CORP.                 6009                                                                                                                                                                           MOHAMMAD SAHED MIAH                                                                                      0200021305638                      BD                                                                                                                                                                             431118055312                                                                                             
D000002FT2431152382580520241106000000000009528.54BDT999REHAM MOHAMMAD H ASIRI                                                1075603306                         Remittance To Account              BHOLA                              CHAR SHASHIBHUSHON                 2324                                                                                                                                                                           rafikul islam                                                                                            0200022861324                      bangladish                                                                                                                                                                     100 راتبها والباقي هديه                                                                                  
F000002000000000040845.6620241107Bank Al Bilad                      
H000006000000000419517.3320241107Agrani Bank Limited                
D000001FT2431202975800120241107000000000018422.06BDT999ABDULLAH MOHAMMED ABDULLAH ALSHAHRA                                   1104202344                         Remittance To Account              DHAKA                              ANTA BARRAH                        5972                                                                                                                                                                           YARON                                                                                                    0200018981703                      BD                                                                                                       01713253597                                                           Remittance To Account                                                                                    
D000002FT2431203627621120241107000000000208042.18BDT999ABDULLAH MUNEER MOHAMMED ALQAHTANI                                    1082300706                         Remittance To Account              DHAKA                              JATRABARI                          9328                                                                                                                                                                           KHUI BEGUM                                                                                               0200019700608                      JATRABARI                                                                                                                                                                                                                                                                               
D000003FT2431210444734420241107000000000040655.57BDT999AEDH ABDULAZIZ HAMOUD ALOSAIMI                                        1034773927                         Remittance To 3rd Party Bank       Remittance-To-3rd-Party-Bank       Remittance To 3rd Party Bank       0000                               CITY BANK LIMITED THE                                                 CITY BANK LIMITED THE DHAKA                                           MOMENA BEGUM                                                                                             2223989374001                      SUBANNACHAN BR                                                                                                                                                                 Remittance To 3rd Party Bank                                                                             
D000004FT2431220982885020241107000000000078931.63BDT286RABIUL   ALAM                                                         2435927211                         Remittance To Account              COMILLA                            KASHINAGAR BAZAR                   6312                                                                                                                                                                           SAFORA AKTER                                                                                             0200005455657                      BD                                                                                                       00                                                                    Personal Expenses                                                                                        
D000005FT2431237521703320241107000000000042243.68BDT999SIRAJUL MD JUNAB ALI                                                  2451211839                         Remittance To Account              MANIKGONJ                          SINGAIR                            8710                                                                                                                                                                           MOHAMMAD JANU MIA                                                                                        0200004025509                      BD MANIKGONJ SINGAIR                                                                                                                                                           Remittance To Account                                                                                    
D000006FT2431249514190220241107000000000031222.21BDT131NAYAN   LOKMAN                                                        2540112022                         Remittance To Account              COMILLA                            MONOHARPUR                         2470                                                                                                                                                                           SIRINA AKTER                                                                                             0200007026301                      BD                                                                                                                                                                             Personal Expenses                                                                                        
F000006000000000419517.3320241107Bank Al Bilad                      
H000017000000001606249.1920241107Agrani Bank Limited                
D000001FT2431200396711220241107000000000200000.00BDT296OHIDUL MOLLA MOFIZUL MOLLAH                                           2494581636                         Remittance To Account              MUNSHIGONJ                         DIGHIRPAR                          1701                                                                                                                                                                           OHIDUL MOLLA                                                                                             0200019247588                      DIGHIRPAR                                                                                                7                                                                     Personal Savings                                                                                         
D000002FT2431201481837420241107000000000031126.92BDT999BADER HAKEM SAUD ALMUTAIRI                                            1028177903                         Remittance To Account              MADARIPUR                          KALKINI                            9848                                                                                                                                                                           RUMA SOBHAN MRIDHA                                                                                       0200022063675                      KALKINI BAZAR                                                                                            01                                                                    Remittance To Account                                                                                    
D000003FT2431204354005820241107000000000516135.17BDT145ANWAR HUSSAIN HUSSAIN HOSSAIN                                         2550459222                         Remittance To Account              Remittance-To-3rd-Party-Bank       Remittance To 3rd Party Bank       0000                                                                                                                                                                           HOSNE ARA BEGUM                                                                                          0200001488143                      BD                                                                                                                                                                             Personal Expenses                                                                                        
D000004FT2431208383543220241107000000000078611.30BDT147MANNAN GOFUR  KHAN                                                    2221129816                         Remittance To Account              CHANDPUR                           BABURHAT                           2401                                                                                                                                                                           LEPE AKTER                                                                                               0200004309372                      BANGLADESH                                                                                                                                                                     Personal Expenses                                                                                        
D000005FT2431208392202120241107000000000035000.00BDT333ZABER MIAH SURUJ S                                                    2255550911                         Remittance To Account              Remittance-To-3rd-Party-Bank       Remittance To 3rd Party Bank       0000                                                                                                                                                                           JAYEDA JAVED                                                                                             0200005352761                      BRANCH ROAD NARYANJ BD                                                                                                                                                         Personal Expenses                                                                                        
D000006FT2431210315910420241107000000000053202.00BDT157MD  ISMAIL  BEG                                                       2550224717                         Remittance To Account              DHAKA                              AGAMASI LANE                       4664                                                                                                                                                                           RABEYA BEGUM                                                                                             0200017635776                      BD                                                                                                                                                                             Personal Expenses                                                                                        
D000007FT2431210469255020241107000000000037479.35BDT999MAJED ABDULLAH ALI ALBALAWI                                           1041819648                         Remittance To Account              B.BARIA                            AKHAURA                            0185                                                                                                                                                                           BINRASS MALA                                                                                             0200008260953                      BD                                                                                                                                                                             Remittance To Account                                                                                    
D000008FT2431212783332720241107000000000031222.21BDT127MOHAMMED SULTAN MOHAMMED ALOTAIBI                                     1061288229                         Remittance To Account              SUNAMGONJ                          DERAI                              8832                                                                                                                                                                           KUSUM MOHAMED LAL MIA                                                                                    0200017369927                      DERAI BRANCH, SUNAMGONJ                                                                                  01713253883                                                           Personal Expenses                                                                                        
D000009FT2431217219804420241107000000000035033.67BDT109RAKAN TURKI MUTLAQ ALSHAMMARI                                         1076232816                         Remittance To Account              B.BARIA                            CHANDUA BAZAR                      8113                                                                                                                                                                           AHAD MIAH                                                                                                0200014024706                      BD                                                                                                                                                                             Salary                                                                                                   
D000010FT2431228724096620241107000000000201848.55BDT129NASSER MUNAHI NASSER ALQAHTANI                                        1036619656                         Remittance To Account              JHENAIDAH                          KALIGANJ                           1199                                                                                                                                                                           MOSAMMAT HOSNA AKTER                                                                                     0200009764600                      NALDANGA BAZAR                                                                                                                                                                 Salary                                                                                                   
D000011FT2431234019320120241107000000000015341.13BDT152ABBAS SHAFIQUL  RAHMAN                                                2186265993                         Remittance To Account              MOULVIBAZAR                        MOULVIBAZAR                        3250                                                                                                                                                                           JUMERA AKTER POPY                                                                                        0200021192203                      MOULVIBAZAR                                                                                                                                                                    Personal Expenses                                                                                        
D000012FT2431237510088020241107000000000050184.22BDT999MAMUN MAYNAL  HOSSAIN                                                 2440719348                         Remittance To Account              COMILLA                            NIMSHAR                            1751                                                                                                                                                                           MAMUN                                                                                                    0200005315416                      BD                                                                                                                                                                             Remittance To Account                                                                                    
D000013FT2431237524011820241107000000000040655.57BDT999ABDULLAH NASSER SALEH ALMARRI                                         1044644209                         Remittance To 3rd Party Bank       Remittance-To-3rd-Party-Bank       Remittance To 3rd Party Bank       0000                               AGRANI BANK LIMITED                                                   AGRANI BANK LIMITED DHAKA                                             OLILUR RAHMAN                                                                                            0200017308942                      KARMADAH BRANCH                                                                                          1212                                                                  Remittance To 3rd Party Bank                                                                             
D000014FT2431252142452020241107000000000039067.46BDT999HAJAR SALMAN ALI ALKHAMSI                                             1120122443                         Remittance To Account              Narail                             GAZIRHAT                           6110                                                                                                                                                                           IBRAHIM SHEIKH                                                                                           0200019462335                      BD                                                                                                                                                                             Remittance To Account                                                                                    
D000015FT2431284610320420241107000000000015245.84BDT999MD  RINTU  MALITHA                                                    2510808286                         Remittance To Account              KUSHTIA                            ALLARDARGAH                        1422                                                                                                                                                                           TULUARA                                                                                                  0200021398361                      BD                                                                                                                                                                             Remittance To Account                                                                                    
D000016FT2431290560869520241107000000000126095.80BDT145MD   SHEIKH                                                           2579869112                         Remittance To Account              GOPALGONJ                          MUKSHUDPUR                         9198                                                                                                                                                                           SAMI BEGAM                                                                                               0200022040952                      BD                                                                                                                                                                             Personal Expenses                                                                                        
D000017FT2431293689611520241107000000000100000.00BDT119MOHAMMAD ZAHIR  UDDIN                                                 2432112882                         Remittance To Account              FENI                               FENI                               2767                                                                                                                                                                           ARZU AKTHER                                                                                              0200008218000                      BD                                                                                                                                                                             Personal Expenses                                                                                        
F000017000000001606249.1920241107Bank Al Bilad                      
H000012000000000857254.3220241107Agrani Bank Limited                
D000001FT2431203006728820241107000000000091475.03BDT999BELAL   NURUL ISLAM                                                   2578129021                         Remittance To Account              BARGUNA                            KAKCHIRA                           1942                                                                                                                                                                           SAHEDA BEGUM                                                                                             0200006438223                      A C                                                                                                      01                                                                    Remittance To Account                                                                                    
D000002FT2431203668439920241107000000000031126.92BDT999FAHAD SALEM EID ALBALAWI                                              1040839985                         Remittance To Account              DHAKA                              FOREIGN EXCH CORP.                 6009                                                                                                                                                                           LALITA BEGUM                                                                                             0200021680335                      BANGLADESH                                                                                                                                                                     Remittance To Account                                                                                    
D000003FT2431224117917820241107000000000101003.68BDT999MOTIN BISWAS SHAHJAHAN BISWAS                                         2536354422                         Remittance To Account              MANIKGONJ                          MANIKGANJ                          2913                                                                                                                                                                           MOTIN BISWAS                                                                                             0200002688366                      BANGLADESH                                                                                                                                                                     Remittance To Account                                                                                    
D000004FT2431224129087720241107000000000043831.79BDT999SARAH MUSAAD QUTAIMAN ALOTAIBI                                        1007255506                         Remittance To 3rd Party Bank       Remittance-To-3rd-Party-Bank       Remittance To 3rd Party Bank       0000                               Pubali Bank PLC                                                       Pubali Bank PLC DHAKA                                                 MINARA KHATUN                                                                                            3502101157447                      GUNINGANJ BR                                                                                                                                                                   Remittance To 3rd Party Bank                                                                             
D000005FT2431227021098220241107000000000031762.16BDT206ABDULGHANI ABBAS HUSSAIN ALNAKHLI                                     1061243240                         Remittance To Account              SUNAMGONJ                          DERAI                              8832                                                                                                                                                                           MD JIL MIA                                                                                               6045134014022                      IBW DERAI BR SUNAMGONJ                                                                                                                                                         House Labor transfer                                                                                     
D000006FT2431237566077020241107000000000037479.35BDT999AHMED HUSSAIN AHMED QUBURA                                            1031986050                         Remittance To Account              BARGUNA                            TALTALI BAZAR                      1589                                                                                                                                                                           HALIMA ABUALQASEM                                                                                        0200014080274                      TALTALI BAZAR                                                                                                                                                                  Remittance To Account                                                                                    
D000007FT2431237759181220241107000000000088140.00BDT120FAHAD HAMED HAMDAN ALMUBARAK                                          1048423113                         Remittance To Account              MYMENSINGH                         KASHIGANJ                          5696                                                                                                                                                                           MOHAMMAD HASEN ALI                                                                                       0200007167348                      MYMENSINGH, BD KASHIGANJ BRANCH                                                                                                                                                Personal Expenses                                                                                        
D000008FT2431250474960720241107000000000200000.00BDT170SAPWAN    AFAZUDDIN                                                   2212456699                         Remittance To Account              GAZIPUR                            RAJA BARI BHAWAL                   4258                                                                                                                                                                           MD AFAZUDDIN DAWAN                                                                                       0200006638768                      RAJABARI BHAWAL                                                                                                                                                                Personal Expenses                                                                                        
D000009FT2431252173630720241107000000000101003.68BDT999GOLAM KIBRIY  KHAN                                                    2448238838                         Remittance To Account              MANIKGONJ                          CHARIGRAM                          7620                                                                                                                                                                           GOLAM KIBRIY KHAN                                                                                        0200009883036                      CHARIGRAM BAZAR BR, MANIKGONJ                                                                            880                                                                   Remittance To Account                                                                                    
D000010FT2431252728522520241107000000000028046.00BDT128MUKHAYZIM HAMOUD TARJAM ALQAHTANI                                     1032908392                         Remittance To Account              SYLHET                             LALA BAZAR                         6033                                                                                                                                                                           EJAS ALI                                                                                                 0200014802514                      LALA BAZAR                                                                                                                                                                     Personal Expenses                                                                                        
D000011FT2431278640749820241107000000000027950.71BDT999NAWAF GHALLAB SHARI BIN BUSAYYIS                                      1050948254                         Remittance To Account              NETRAKONA                          BARHATTA                           8938                                                                                                                                                                           MST LIMA AKTER                                                                                           0200022350529                      BD                                                                                                                                                                             Remittance To Account                                                                                    
D000012FT2431289072216020241107000000000075435.00BDT163MOHAMMED ABULKHAIR  ABDUL MALEK                                       2179792417                         Remittance To Account              FENI                               BAIRAGIRHAT                        6919                                                                                                                                                                           MD ABUL KHAIR                                                                                            0200006864508                      BD                                                                                                                                                                             Personal Expenses                                                                                        
F000012000000000857254.3220241107Bank Al Bilad                      
H000008000000000715261.5120241107Agrani Bank Limited                
D000001FT2431201509936320241107000000000150235.04BDT999HANIF   ABDUL GOFRAN                                                  2245629262                         Remittance To Account              PIROJPUR                           MIRUKHALI                          4449                                                                                                                                                                           KHADIJA PARVEEN                                                                                          200006075595                       BRR MIRUKHALI                                                                                            00                                                                    Remittance To Account                                                                                    
D000002FT2431204401000120241107000000000108626.60BDT160NURULISLAM    JALALUDDIN                                              2198174621                         Remittance To Account              TANGAIL                            KANCHANPUR                         6171                                                                                                                                                                           KAHI NOOR                                                                                                0200007731540                      TANGAIL , KANCHANPUR                                                                                                                                                           Personal Expenses                                                                                        
D000003FT2431209372300220241107000000000094651.25BDT999NAZRUL    ALI                                                         2174854154                         Remittance To Account              GAZIPUR                            BARMI BAZAR                        9084                                                                                                                                                                           Salma Akhter                                                                                             0200019527371                      kapaleswer kapasia Gazipur                                                                                                                                                     Remittance To Account                                                                                    
D000004FT2431252190717320241107000000000126413.42BDT999FARIS MATAR MATER ALSHALAWI                                           1020650485                         Remittance To Account              LAXMIPUR                           CHANDRA GANJ                       7142                                                                                                                                                                           YASMIN AKTER                                                                                             0200006764156                      CHANDRA GANJ                                                                                                                                                                   Remittance To Account                                                                                    
D000005FT2431253321765020241107000000000024870.00BDT153ALAL MIAH JURAL KHAN                                                  2429852920                         Remittance To Account              B.BARIA                            B.BARIA                            3070                                                                                                                                                                           ALAL MIAH JURAL KHAN                                                                                     0200019065805                      AGRANI BANK B BARIA BR                                                                                                                      0200019065805 AGRANI BANK          Personal Expenses                                                                                        
D000006FT2431270395642520241107000000000110000.00BDT330NAZRUL ISLAM SIDDKUR RAHMAN  MAJHI                                    2216942694                         Remittance To Account              Remittance-To-3rd-Party-Bank       Remittance To 3rd Party Bank       0000                                                                                                                                                                           NADIA SULTANA                                                                                            0200007060342                      BD                                                                                                       0786778887                                                            Personal Expenses                                                                                        
D000007FT2431276018967420241107000000000062985.85BDT104ABDUL BASET SOHIM UDDIN                                               2193915044                         Remittance To Account              Remittance-To-3rd-Party-Bank       Remittance To 3rd Party Bank       0000                                                                                                                                                                           PAPIYA KHATUN                                                                                            0200008358707                      BAGHBARI                                                                                                 187956321                                                             Personal Expenses                                                                                        
D000008FT2431284645033520241107000000000037479.35BDT999LEBU   MIAH                                                           2477176354                         Remittance To Account              MANIKGONJ                          CHARIGRAM                          7620                                                                                                                                                                           KAZUL BEGUM LEBU MIAH                                                                                    0200015520725                      CHARIGRAM                                                                                                                                                                      Remittance To Account                                                                                    
F000008000000000715261.5120241107Bank Al Bilad                      
H000008000000000726969.0520241107Agrani Bank Limited                
D000001FT2431209410735720241107000000000027950.71BDT999HEND SALEM ABDULLAH AQEEL                                             2046337685                         Remittance To Account              SUNAMGONJ                          DERAI                              8832                                                                                                                                                                           RASMATI BIBI                                                                                             6045134015361                      BD                                                                                                                                                                             Remittance To Account                                                                                    
D000002FT2431225109870820241107000000000119740.00BDT102MD  RASEL MIA                                                         2433496573                         Remittance To Account              Remittance-To-3rd-Party-Bank       Remittance To 3rd Party Bank       0000                                                                                                                                                                           MOHAMMEDD SHOHIDULLAH                                                                                    0200001034691                      BD BR 2629                                                                                                                                                                     Personal Expenses                                                                                        
D000003FT2431239379052220241107000000000086551.90BDT144SHISHIR     BARUA                                                     2020396855                         Remittance To Account              CHITTAGONG                         ASKERDIGHI                         5298                                                                                                                                                                           RUMI BARUA                                                                                               0200006353754                      CHITTAGONG                                                                                                                                                                     Personal Expenses                                                                                        
D000004FT2431244699043020241107000000000107038.49BDT179EUSUB ABDURRAHIM  ABDURRAHIM                                          2140120615                         Remittance To Account              DHAKA                              POSTA                              2194                                                                                                                                                                           KULSUM EUSUB                                                                                             0200003462849                      KAPASIA BRANCH DIST GAZIPUR                                                                                                                                                    Personal Expenses                                                                                        
D000005FT2431250648004920241107000000000043927.07BDT101MADALLAH KHALIL SAMID ALSHARARI                                       1053328652                         Remittance To Account              SYLHET                             BALAGANJ                           4977                                                                                                                                                                           JOSNA BEGUM                                                                                              0200005917017                      BALAGANJ BRANCH                                                                                                                                                                House Labor transfer                                                                                     
D000006FT2431261469211720241107000000000201848.56BDT174ABUL KASHEM KASHEM MD SHAJAHAN                                        2573552557                         Remittance To Account              COMILLA                            LAKSHAM                            3616                                                                                                                                                                           IBRAHIM KHOLIL                                                                                           0200009046624                      LAKSHAM BR                                                                                                                                                                     Personal Expenses                                                                                        
D000007FT2431270401810120241107000000000070670.80BDT302Mohammed JAHIRUL  ISLAM                                               2581705981                         Remittance To Account              B.BARIA                            AKHAURA                            0185                                                                                                                                                                           MD JOHIRUL ISLAM                                                                                         0200019478924                      BD                                                                                                                                                                             Personal Expenses                                                                                        
D000008FT2431284673017120241107000000000069241.52BDT999ALI SHALUKH M ALMUTAIRI                                               1030275729                         Remittance To Account              NARSINGDI                          RADHAGANJ                          1430                                                                                                                                                                           ABDUL GANI MIA                                                                                           0200012809323                      BD                                                                                                       00                                                                    Remittance To Account                                                                                    
F000008000000000726969.0520241107Bank Al Bilad                      
H000004000000000207396.8020241107Agrani Bank Limited                
D000001FT2431208473128320241107000000000020000.00BDT165ALAUDDIN MD DULAL MIAH                                                2434148884                         Remittance To Account              B.BARIA                            KASBA                              9519                                                                                                                                                                           ALAUDDIN MD DULAL MIAH                                                                                   0200022456456                      KASBA B BARIA                                                                                            0544842784                                                            Personal Expenses                                                                                        
D000002FT2431210386944020241107000000000062730.30BDT321MOHAMMAD SHARIFUL  ISLAM                                              2439442126                         Remittance To Account              Remittance-To-3rd-Party-Bank       Remittance To 3rd Party Bank       0000                                                                                                                                                                           NADIRA                                                                                                   0200017106601                      BD                                                                                                                                                                             Personal Expenses                                                                                        
D000003FT2431252222317020241107000000000030015.25BDT999ABUL KALAM SAYED BOX                                                  2435337379                         Remittance To Account              KISHOREGANJ                        KISHOREGANJ                        3234                                                                                                                                                                           TASLIMA TASLIMA                                                                                          0200005009273                      KISHOREGANJ                                                                                                                                                                    Remittance To Account                                                                                    
D000004FT2431278701911020241107000000000094651.25BDT999SHAKIL   KHAN                                                         2448571147                         Remittance To Account              GAZIPUR                            GOSHINGA                           4059                                                                                                                                                                           ABDUL MOTALIB KHAN                                                                                       0200008198461                      BD                                                                                                                                                                             Remittance To Account                                                                                    
F000004000000000207396.8020241107Bank Al Bilad                      
H000005000000000435235.9520241107Agrani Bank Limited                
D000001FT2431207045684920241107000000000021693.55BDT327DINAR ALHUMAIDI HAMED ALHARBI                                         1033837830                         Remittance To Account              HOBIGONJ                           HABIGANJ                           3019                                                                                                                                                                           MOHAMMED ALFU MIAH                                                                                       0200018515613                      BD                                                                                                       00000                                                                 Salary                                                                                                   
D000002FT2431208488993720241107000000000110214.70BDT284MD REZAUL   KARIM                                                     2548518113                         Remittance To Account              SIRAJGANJ                          NIMGACHI                           5773                                                                                                                                                                           MD ABDUL HAMID SHEIKH                                                                                    0200013949977                      BD                                                                                                                                                                             Personal Expenses                                                                                        
D000003FT2431212871200620241107000000000079246.00BDT102ARAFATUL   RAHMAN                                                     2563221205                         Remittance To Account              Remittance-To-3rd-Party-Bank       Remittance To 3rd Party Bank       0000                                                                                                                                                                           ROJINA KHATUN                                                                                            0200006692884                      ROUTING NO-010570133                                                                                     6546                                                                  Personal Expenses                                                                                        
D000004FT2431252500070520241107000000000031761.79BDT132BADER FADHI SULAIMAN ALMUTAIRI                                        1077312724                         Remittance To Account              SUNAMGONJ                          AMBARI BAZAR                       6622                                                                                                                                                                           MD ASHID ALI                                                                                             0200009437054                      BD                                                                                                       1                                                                     431212089320                                                                                             
D000005FT2431279700467220241107000000000192319.91BDT171KABIRUL    ISLAM                                                      2472945001                         Remittance To Account              KUSHTIA                            DAULATPUR                          1621                                                                                                                                                                           SHAGORIKA KABIRUL ISLAM                                                                                  0200006802453                      KUSHTIA DAULATPUR                                                                                        00                                                                    Personal Expenses                                                                                        
F000005000000000435235.9520241107Bank Al Bilad                      
H000010000000001011178.7720241107Agrani Bank Limited                
D000001FT2431203000196320241107000000000031761.79BDT999SHAHID MUFLIH AHMED ALRASHDI       76565603                           1104105653                         Remittance To Account              DHAKA                              AMIN COURT CORP.                   1242                                                                                                                                                                           MOMENA ZONAB ALI SHEIK                                                                                   0200007138944                      BD                                                                                                                                                                                                                                                                                      
D000002FT2431203002307920241107000000000028585.61BDT132CHAMPA BEGUM MD MANIKUR RAHMAN                                        2520999398                         Remittance To Account              SYLHET                             SHAHGOLI BAZAR                     6232                                                                                                                                                                           MANIKUR RAHMAN                                                                                           0200018296297                      BD                                                                                                       00                                                                    Family 431212086385                                                                                      
D000003FT2431203007529620241107000000000053360.44BDT999SHA ALAM RASHED SHEIKH                                                2136658669                         Remittance To Account              FARIDPUR                           MALIGRAM                           6492                                                                                                                                                                           RAZIA SULTANA SHAH ALAM                                                                                  0200004924297                      FARIDPUR                                                                                                 55555555                                                              Remittance To Account                                                                                    
D000004FT2431230383508520241107000000000047103.29BDT171RASHIDUL ISLAM ISLAM ISLAM                                            2524639362                         Remittance To Account              TANGAIL                            NAGARPUR                           9076                                                                                                                                                                           RUNA AKTER                                                                                               0200018649704                      BD                                                                                                                                                                             Personal Expenses                                                                                        
D000005FT2431252966590020241107000000000031222.21BDT327AHMED FAHHAD LAFE ALHARBI                                             1046001275                         Remittance To Account              KUSHTIA                            PARAGPUR                           4839                                                                                                                                                                           BOBY KHATUN                                                                                              0200019788779                      BD                                                                                                       00                                                                    Salary                                                                                                   
D000006FT2431261048003220241107000000000031222.21BDT296MOHAMED YOUSIF  MOHAMEDELAMIN                                         2284565518                         Remittance To Account              NOAKHALI                           DASHGARIA                          1812                                                                                                                                                                           MRSHEDA BEGUM HAKEM                                                                                      0200006952843                      DOSHGARIA BRANCH DISTT NOAKHALI                                                                          11                                                                    Personal Expenses                                                                                        
D000007FT2431278009004320241107000000000500000.00BDT144RATAN KUMAR  BARUA                                                    2131042877                         Remittance To Account              CHITTAGONG                         COLONEL HAT                        8331                                                                                                                                                                           SUMA BARUA                                                                                               0200021739748                      COLONEL HAT BRANCH                                                                                                                                                             Personal Expenses                                                                                        
D000008FT2431280172512020241107000000000126095.00BDT201MUHAMMAD TAYYAB MUHAMMAD ARSHAD                                       2482606965                         Remittance To Account              SATKHIRA                           SATKHIRA                           3510                                                                                                                                                                           MOSAMMAT SUFIA KHATUN                                                                                    0200007860740                      BD                                                                                                       0001                                                                  Personal Expenses                                                                                        
D000009FT2431283506780020241107000000000099097.95BDT155KAMAL HOSSAIN  JOYNAL                                                 2163786342                         Remittance To Account              B.BARIA                            CHANDUA BAZAR                      8113                                                                                                                                                                           MD MOSTUFA                                                                                               0200015245045                      CHARBHADRASAN BAZAR                                                                                                                                                            Personal Expenses                                                                                        
D000010FT2431284525010720241107000000000062730.27BDT237MISBA SOFIK  UDDIN                                                    2566775900                         Remittance To Account              COMILLA                            PADUAR BAZAR                       5383                                                                                                                                                                           SUMA BEGUM                                                                                               0200017633038                      AGRANI BK                                                                                                                                                                      Personal Expenses                                                                                        
F000010000000001011178.7720241107Bank Al Bilad                      
H000006000000000714107.6320241107Agrani Bank Limited                
D000001FT2431212906493220241107000000000130000.00BDT133SAFIKUL ISLAM ABDUL MAJID                                             2457827463                         Remittance To Account              RAJBARI                            NALIA JAMALPUR                     2022                                                                                                                                                                           KASHIM MIRDHA                                                                                            0200006555580                      BD                                                                                                                                                                             Salary                                                                                                   
D000002FT2431230024274620241107000000000200000.00BDT174FARAD SERAJUL  HOQ                                                    2499058184                         Remittance To Account              CHANDPUR                           NARAYANPUR                         6338                                                                                                                                                                           AYESHA BEGUM                                                                                             0200013911134                      CHANDPUR                                                                                                                                                                       Personal Expenses                                                                                        
D000003FT2431250729032020241107000000000040916.88BDT286KAMAL HOSSAIN ZALFE ALI                                               2172461499                         Remittance To 3rd Party Bank       Remittance-To-3rd-Party-Bank       Remittance To 3rd Party Bank       0000                               JAMUNA BANK LIMITED                BARURA BAZAR BR                    BARURA BAZAR BR                                                       KAJOL REKHA                                                                                              0730310029674                      BARURA BAZAR BR                                                                                          0088186756358                                                         Personal Expenses                                                                                        
D000004FT2431282249016420241107000000000006353.00BDT209BADER MUSLIH FALEH ALOUFI                                             1002212817                         Remittance To Account              SYLHET                             DHAKA DAKSHIN                      6251                                                                                                                                                                           MD MOSHAID ALI                                                                                           0200005011931                      BD                                                                                                                                                                             Salary                                                                                                   
D000005FT2431289185303820241107000000000190731.80BDT325MONIR   MIN                                                           2216838520                         Remittance To Account              B.BARIA                            BANGORA BAZAR                      1441                                                                                                                                                                           REPA AKTER                                                                                               0200008565676                      BANGORA BAZAR                                                                                                                                                                  Personal Expenses                                                                                        
D000006FT2431297921832620241107000000000146105.95BDT259MOHAMMAD JOHURUL  ISLAM                                               2458414741                         Remittance To Account              SIRAJGANJ                          RAIGANJ                            9161                                                                                                                                                                           RITA BEGUM                                                                                               0200013162140                      RAIGANJ SIRAJGANJ BD                                                                                                                                                           Personal Expenses                                                                                        
F000006000000000714107.6320241107Bank Al Bilad                      
H000001000000000028140.9420241107Agrani Bank Limited                
D000001FT2431210609096120241107000000000028140.94BDT132FAWAZ DHAHER SH ALSHAMMARI                                            1121919516                         Remittance To Account              B.BARIA                            ASHUGONJ                           8625                                                                                                                                                                           JALAL MIAH                                                                                               0200005191548                      BD                                                                                                       0                                                                     salary salha 431214088859                                                                                
F000001000000000028140.9420241107Bank Al Bilad                      